:020000022000DC
:106000000000042061620200B9620200BB6202006B
:10601000BD620200BF620200C16202000000000017
:10602000000000000000000000000000C362020049
:10603000C562020000000000C7620200C9620200DF
:10604000D98F0200CF62020039920200D3620200AF
:10605000D5620200D762020095900200B99B02004F
:1060600075A5020085A5020095A50200E362020065
:10607000E5620200E7620200E9620200EB620200F0
:10608000ED620200B16F0200F1620200F3620200F1
:106090004D700200F762020019D10200FB6202009B
:1060A000FD620200FF62020001630200036302005E
:1060B0000563020007630200CB620200CB620200AC
:1060C000096302000B6302000D6302000F6302000C
:1060D0007DA1020013630200156302001763020032
:1060E000196302001B6302001D630200CB62020001
:1060F000CB62020021630200CB6202001F63020038
:10610000364937480A1A02D0072291438D4635494D
:1061100035480A1A06D00722914381F309880222E2
:1061200082F3148831483249324A00F045F8324847
:106130003249334A00F040F832483349334A00F0DC
:106140003BF833483349344A00F036F83348344991
:10615000344A00F031F834483449354A00F02CF81C
:1061600034483549354A00F027F83548354900228A
:1061700000F02DF834483549002200F028F8344862
:106180003449091A082903DB002202600430016047
:10619000314A90471F482049884205D002680430A0
:1061A00003B4904703BCF7E700208646EC46002086
:1061B00000212A4A9047FEE7884207D0521A05D0AC
:1061C000037801300B700131013AF9D170478842F0
:1061D00002D002700130FAE770470000000004208E
:1061E00000E00320000004200000042060E302001F
:1061F00080220020F8220020246302002463020091
:10620000E6D4020060E30200802200208022002009
:1062100050D6020050D6020050D6020050D60200DE
:1062200050D6020050D6020050D6020050D60200CE
:1062300060E30200D8E30200F8220020F8220020E8
:10624000F8220020D4340020D4340020D43400209C
:10625000D4340020D454002085620200CDA802006E
:106260000F484FF00701884385460E4880470E4887
:10627000016841F470010160BFF34F8FBFF36F8F6E
:10628000FFF73EBF09480A490A4A884207D0521A16
:1062900005D0037801300B700131013AF9D1704714
:1062A00000000420318B020088ED00E0F0D50200F0
:1062B0002022002080220020FEE7FEE7FEE7FEE726
:1062C000FEE7FEE7FEE7FEE7FEE7FEE7FEE7FEE7A6
:1062D000FEE7FEE7FEE7FEE7FEE7FEE7FEE7FEE796
:1062E000FEE7FEE7FEE7FEE7FEE7FEE7FEE7FEE786
:1062F000FEE7FEE7FEE7FEE7FEE7FEE7FEE7FEE776
:10630000FEE7FEE7FEE7FEE7FEE7FEE7FEE7FEE765
:10631000FEE7FEE7FEE7FEE7FEE7FEE7FEE7FEE755
:04632000FEE700BFD5
:106324007047000007B5044B0093044A402300F073
:1063340032F803B05DF804FB45630200F922002043
:106344002DE9F84389461446B2B10F4B0F4E03258D
:10635400002743F00108224609EB0701002004F05E
:1063640011FC0744241A48B933782BB14FF47A400E
:10637400C047013D02D13570BDE8F8830123337075
:10638400002CE8D1F8E700BF50D60200F822002024
:10639400704704F02BBCF0B595B01C461646084671
:1063A4000D4602F0D2FA1A9B0D93CDE9086400243D
:1063B40023460C2205A928460A948DF82C400C94F7
:1063C40002F0FFFA079B0293BDF81830ADF80C30C9
:1063D400BDF81A30ADF80E309DF814308DF8114028
:1063E40003F00302012A1DD1BDF81440059EC3F336
:1063F400C203C4F383148DF81030A2000C230EA939
:10640400284602F0DEFAC6F3952608AB009322462E
:1064140002AB0EA9304600F04BFC284602F099FA74
:1064240015B0F0BD022AF8D1BDF81640C3F3C2037B
:10643400A4098DF810300C27082C264628BF0826FE
:106444003B4632460EA9284602F0BBFAA41B08AB11
:1064540002AA31460EA8374400F08EFC002CEBD182
:10646400DBE70000014B01221A7070477A230020F9
:106474007047000070B50E4D06460FCD88B06C46CF
:106484000FC495E80F0084E80F0008A9002E4FF010
:106494000603084A41F8203D08BF0022064802F0DE
:1064A40015FD08B100F0D6FC044B1E7008B070BD99
:1064B40064D602006964020080220020392300208F
:1064C40007B5044B0093044A4023FFF764FF03B06D
:1064D4005DF804FBE16402003A23002038B50D4B5B
:1064E4000D4D002018700D4804782D5DD2B21C4665
:1064F40065B1043003F00EFB08B100F0ABFC084BAF
:106504001A7812B12378002BFBD038BD0C3003F07D
:10651400DFF8F1E77A230020782A00208022002087
:106524003923002008B50848084A0378D35C3BB1F6
:10653400043003F099FA0020BDE80840FFF79ABF41
:106544000C3003F06FF8F6E780220020782A002050
:106554000120FFF78FBF000038B5094CFFF719FF82
:1065640001250421204600F0E3FA6572054CFFF78B
:10657400EFFF0421204600F0DBFA657238BD00BF4E
:1065840094220020A0220020037813F0030F03F0CC
:10659400040202D012B910467047B2B103F00303EB
:1065A400012B03D0022B09D0012070470A68008810
:1065B4000332C0F3831002440A60F5E70B68428893
:1065C400033303EB92130B60EEE70B68428801334D
:1065D40003EB92130288F4E72DE9F04F89B00546E6
:1065E400C61C08A84C4C019200230F4600F8113D2C
:1065F40000F0D4FE23683B60D4E9012313442268ED
:1066040001339B1A04F21C4704F5836A04F214480C
:10661400B3421AD3019A0023002A75D0012262F3EF
:10662400010343F0040365F389132168A2689DF80C
:106634000F000A4003320E4444F82230266000F072
:10664400D1FE012009B0BDE8F08F0121384601F0E8
:1066540032FD504601F045FD404601F042FD0DF18A
:1066640020096068D4F808B049F8100D00EA0B005E
:10667400033004EB80004946FFF786FF049B10B10A
:106684000BEA0300F4E7591C01EA0B0104EB810156
:106694000BEA0302C968069104EB8202991CD268D2
:1066A400059201EA0B0B04EB8B0B02F00302DBF8FF
:1066B4000C1007910333012A04931BD0022A21D121
:1066C400BDF81620BDF81AB09209033203EB920309
:1066D4000493404601F008FD08B1049B63605946E9
:1066E400384601F0E8FCD4E901231344226801335D
:1066F4009B1A8DE7BDF81420BDF81AB0C2F38312BB
:106704001344E5E78346E4E7022262F3010343F01E
:10671400040365F39F5388E74C24002038B50546ED
:1067240008B3124CFF23A36008460023C4F81834AE
:10673400C4E90033C4F8143484F8203400F072FB44
:106744000B48C4F80C5402F0B9F838B9094A0A4B9A
:106754000A499B1ADB0802469A4200D138BD21F847
:1067640022200132F8E70720F8E700BF4C2400207C
:10677400B0D5020018D50200B0D5020020220020B6
:1067840030B50B4C79B10B4A0B49121BD2080023CC
:106794009A4201D1002030BD01EB83056D8885420A
:1067A40002D00133F4E7034654F83300F3E700BFA3
:1067B40018D50200B0D5020020220020094B01396F
:1067C40003EBC000032909D8DFE801F00A0204063C
:1067D4000420704700797047407970470020704763
:1067E4000220704718D50200034BD3E90030C31AC6
:1067F40058425841704700BF4C2400202DE9F04313
:1068040087B0FFF7F1FF0646002840F0FF80804C78
:10681400C4F81804BFF34F8F6068D4F8088006AF3B
:1068240047F8100D00EA0800033004EB80003946F5
:10683400FFF7AAFE029B054650B122689A4204D88B
:106844006260304607B0BDE8F08308EA0300EBE776
:10685400591C01EA080104EB810108EA0302C96832
:10686400049104EB8202991CD268039201EA0801A4
:10687400033304EB8101029302F00303C968059119
:10688400022B57D1BDF80E3062489F09502FB946EC
:1068940028BF4FF0500969F38F1309F10C01ADF8CB
:1068A4000E3002F023F80646002800F09D8002F026
:1068B4004CF80C222B460DEB0201304602F058F83E
:1068C400029928EA01050135AD00A9452AD95FFAE4
:1068D40089F925B3EDB2A9EB050908EA01010331F1
:1068E4005FFA89F8A9464C4D04EB81010C234A4612
:1068F400304602F03DF835B109F10C034246294611
:10690400304602F035F8029B033703EB97070297F2
:10691400D4F81834002B42D1D4F8105450E03E4936
:10692400A846E3E708EA010103310C234A4604EBD5
:106934008101E5E7012B57D1BDF80C303548C3F38D
:106944008311062928BF062161F3891303318900C5
:10695400ADF80C3001F0CAFF0646002844D001F01F
:10696400F4FF0C222B460DEB0201304602F000F836
:10697400BDF80C20C2F38312EB1C95424FEA83034B
:10698400C6D202994A1C08EA01010331029204EBBF
:1069940081010422304601F0EBFF0135E8E730467F
:1069A40001F0D7FFFFF720FF80F00100C6B248E7EF
:1069B4006B7A23B12B6831461B68284698476D686B
:1069C400002DF5D1304601F0C4FF06A800F8115D92
:1069D40000F0E4FCD4F818340BB9029B63609DF812
:1069E400070000F0FFFCDDE7D4F8104444B90B4B7A
:1069F4000B491888000440F0020000F075F8D1E754
:106A0400236820469B6898476468EFE7002618E7E8
:106A14004C240020B0D5020058240020402200203D
:106A240090D602002DE9F74F2D4C81468846174633
:106A340001A9012218469B46D4F808A0FFF7CCFD13
:106A4400D0B3019D0026E91C5E4506EB01023DD151
:106A54000021244801F0F9FA80F310006B1C03EACA
:106A64000A0304EB8303000440EA1940D860AF1C16
:106A7400D4F80C34984707EA0A0704EB870705EAB9
:106A84000A030333F86014F8232069F3C50204F8F9
:106A9400232034F8232066F3891224F8232054F8A1
:106AA4002320012168F39F2244F8232061F301028B
:106AB4006FF3820204F8232094F820341BB1FFF70B
:106AC4009DFE0028FBD103B0BDE8F08F0AEA020264
:106AD40004EB820257F82630D3600136B4E700BFD6
:106AE4004C2400206828002000231A46FFF79ABF90
:106AF40013B502AC012344F8042D2246FFF792FF9C
:106B040002B010BD07B5CDE9002302236A46FFF7A2
:106B140089FF03B05DF804FB1FB5CDE90123069B93
:106B2400039301AA0323FFF77DFF05B05DF804FB7F
:106B34000F4A30B5D2F810440023214641B90372FC
:106B4400D2F810444CB9C2F810044160184630BD64
:106B54000D7A9D4205D04968F0E762684260606042
:106B6400F4E701330A2BE8D14FF0FF33EEE700BF1F
:106B74004C240020084A38B50123D2F8104482F886
:106B840020341D4604B938BD2368657220465B680D
:106B940098476468F6E700BF4C240020037A052B6D
:106BA40010B50C460FD0437A23B1084A0849204651
:106BB40001F0FBFA0749204601F0F7FA2046BDE848
:106BC400104001F0E7BA002AF8D0F3E7EBD6020050
:106BD400F0D6020058E00200F0B5C38885B0044640
:106BE4000D4633B1284A00922849294A284601F023
:106BF400DCFA217A052945D0637A4BB1A088FFF7E6
:106C0400DDFD244B244953F82020284601F0CDFA19
:106C1400224A23681168B3FBF1F1214B1F68B1FBD1
:106C2400F7F34FF461664FF47A70B3FBF6F206FBA8
:106C3400123607FB13134FF03C0C00FB03F1B6FBB9
:106C4400FCF3B1FBF7FE0CFB136607FB1E11009669
:106C540041432846B1FBF7F1CDE901E1114901F0C7
:106C6400A4FA227A104BA08853F822600021FFF77F
:106C740087FD0E4903463246284605B0BDE8F0407C
:106C840001F093BA05B0F0BDEBD60200FBD60200CA
:106C9400F3D60200B8D60200F0D602007428002011
:106CA4007028002013D702003CD702002FD702001F
:106CB4002DE9F04385B01F460C9D002306460C4683
:106CC400904695F80C902B7329463846FFF784FFBD
:106CD400B8F1060F09D8DFE808F00412181F2833AA
:106CE40040003146284601F060FA00222946384621
:106CF400FFF754FF85F80C9005B0BDE8F0832268D7
:106D04003146284601F051FAEFE7D4E90023314631
:106D1400284601F04AFAE8E7A36800933146D4E92B
:106D24000023284601F041FADFE7E3680193A368F2
:106D340000933146D4E90023284601F036FAD4E71B
:106D440023690293E3680193A36800933146D4E96D
:106D54000023284601F029FAC7E7636903932369EE
:106D64000293E3680193A36800933146D4E90023B6
:106D7400284601F01AFAB8E708292DE9F84F8046A9
:106D84000E4617461C4636D8002593F80C901D7302
:106D940019461046FFF720FFDFF87CA0DFF87CB02F
:106DA400AE422AD918F805205946204601F0FDF9CB
:106DB4000135082DF4D11649DFF864B0204601F0FE
:106DC400F4F90025AE421DD918F805A0504606F086
:106DD40045FA002814BF52462E225946204601F097
:106DE400E4F90135082DEDD1012221463846FFF79B
:106DF400D5FE84F80C90BDE8F88F5146204601F08A
:106E0400D4F9D5E70349204601F0CFF9E9E700BFFB
:106E1400E6D60200E4D60200E2D60200DCD6020086
:106E2400E8D60200084A10B50123084C136000217B
:106E3400A04204D801B11360054B186010BD40088E
:106E44005B000121F4E700BF7428002040420F00DA
:106E5400702800201FB50021039001AA44F201000C
:106E6400CDE9011100F004F805B05DF804FB000061
:106E740010B572B6FFF77EFEFFF7C0FC0028FBD109
:106E8400104C11492088000440F00100FFF72CFE4B
:106E94000E4B1B68DB0700D500BE20880C4900049C
:106EA40040F00200FFF720FEBFF34F8F09490A4B61
:106EB400CA6802F4E0621343CB60BFF34F8F00BF94
:106EC400FDE700BF402200209BD70200F0ED00E068
:106ED400A7D7020000ED00E00400FA05094A537840
:106EE40091780133DBB2994208BF002311789942AB
:106EF4001FBF03705078182303FB002014BF043015
:106F0400002070477828002073B5054602A80024A5
:106F140000F8014D0E4600F041FA0DF10600FFF7AE
:106F2400DDFF90B106700A4B9DF8062045605A704B
:106F34009DF8070000F056FA24B9064B4FF480126E
:106F4400C3F80021204602B070BD0424F0E700BF5E
:106F54007828002000E100E0024B4FF43C6043F04D
:106F640001031847C0D7020038B50C4B0C4C4FF442
:106F74000032C3F8802001254FF48033C4F848332D
:106F8400C4F808336560FFF7E7FF064BA5600024EB
:106F94001C60FFF7E1FF044B1C7038BD00E100E00A
:106FA400001001409429002085290020F8B51F4BCA
:106FB4001F491B680025C1F84051C1F84451C1F86C
:106FC4004851C1F84C51C1F80051C1F804514BB3B8
:106FD400D1F8044517490968641A24F07F442F4600
:106FE4001A68A24209D8A41A15441A7CDE691AB197
:106FF4001F74D3E905209047AEB90F4B0F4A197897
:1070040013788B4205D10133DBB2022B08BF002376
:10701400137012780A4B43F822500A4B4FF4801233
:10702400C3F80021F8BD3346DAE700BF98290020F1
:10703400001001409429002090290020912900206B
:107044008829002000E100E02DE9F74F9E4A9F497E
:10705400137809789E4D99423CD00133DBB2022B60
:1070640008BF002313709B4912789B4B0F6853F899
:1070740022003B1823F07F4300220B602B68164646
:107084001446944613B942B12B6006E01968814254
:107094000ED902B12B60091A19604FF001082B6850
:1070A400DFF83CA200930027BEB9DFF83CB260E0F1
:1070B400401A0C44D968C3F800C0D3F81CE031B1BD
:1070C4003A1922F07F42C3E90121DE611E46012202
:1070D4007346D7E70026B046E1E73446F6697D4AB1
:1070E40063681268DFF804C2A068991A21F07F412E
:1070F400614500F2A58001442160012222742A68BE
:107104000023C4E90133E361002A40F0A2802C602B
:10711400CAE75A1C9BF80210D2B291428BF80020A5
:1071240004BF00228BF80020182202FB03B32A6854
:1071340019799C68022974D003297ED0012918D1B9
:10714400217CB1B9DA6862601A69A2605A699B69E4
:10715400A361624BE2601B78002BC0D06160BEE784
:107164009C4200F093809946DB69002BF8D1002300
:1071740023749BF800309BF801209A42C9D12B68F4
:107184002FB9009A934202D1B8F1000F43D0002BDB
:1071940079D0D3F800A0524D4E4BD5F804751C6835
:1071A400DFF84C813E1B98F8003026F07F4603360A
:1071B4009BB94FF48033C5F84433C5F80433494BC5
:1071C4004FF400324FF00109C3F880211A60C5F86A
:1071D4000090FFF7C1FE88F80090B2452CBF5444DC
:1071E400A41924F07F44C5F84045D5F80435DB1BC9
:1071F40023F07F43E41B033324F07F44A3420AD9E2
:10720400D5F80435C5F84035FFF7A6FE354B4FF4E5
:107214000032C3F80021314B00221A7003B0BDE8DC
:10722400F08F13469146A0E71174D2690123002A16
:10723400FAD1002B9DD02A609BE700231946F6E77C
:10724400D31A23F07F43834234BFC31A002323603D
:1072540053E721681368994213D8591A1160E261FF
:1072640055E7091AD8691A4638B10346186888429E
:10727400F7D3401A1860184613462160E061DC61B8
:1072840012E71346F2E7FFF76FFEC4E74C450DD152
:10729400D3692B6053B90F4801920121CAF8081031
:1072A40003600E4B1970FFF757FE019AE1692368DA
:1072B400C9F81C1011B1086803440B602B689A428A
:1072C40018BF012753E700BF90290020912900200F
:1072D400982900209429002088290020842900204E
:1072E4000010014000E100E078280020FEFF7F004C
:1072F400852900202DE9F7431D4FBB7805460E462E
:1073040090469BB390B304292ED9436973B3437C4D
:1073140002A80024012B00F8014D0CBF8946A146A8
:1073240000F03CF80DF10600FFF7D8FDD0B10123C1
:107334000370104B4560D3F80435C0E90498C0E9E4
:1073440002369DF806307B709DF8070000F04AF87D
:1073540024B9094B4FF48012C3F80021204603B02E
:10736400BDE8F0830424EFE70724F7E70824F5E7F2
:10737400782800200010014000E100E0064A9278DD
:107384003AB130B1426922B1002202740221FFF7FE
:10739400BBBD0820704700BF7828002070B5EFF30C
:1073A400108672B60C4A946801239CB993600B4B07
:1073B4000B4DD3F8801029401160C3F88050D3F8E6
:1073C400841051604FF0FF32C3F88420047006B972
:1073D40062B670BD0370FAE79C29002000E100E06A
:1073E400FC06FFBD084B9A6810B55AB150B9EFF3CB
:1073F400108272B605491C680C605C684C60986029
:1074040002B962B610BD00BF9C29002000E100E073
:1074140070B5064E0546002456F824300BB12846B4
:1074240098470134042CF7D170BD00BFB429002063
:10743400033080B240F2FD33984230B51FD8124B6E
:107444001A783AB91C895D892C440444A4B2B4F571
:10745400806F0AD31A7DA2B99A8BDC8B2244024432
:1074640092B2B2F5806F0CD201220A801446142223
:1074740002FB04335A8910445881002030BD09208E
:10748400FCE70720FAE700BFE82900200B4A0C4B71
:107494005188142000FB0131CB6833B904204968BA
:1074A40010700122074801F0BFB805230649137084
:1074B40002238B80012200230968F3E7CC290020F2
:1074C400E82900206C220020142A002007B500239C
:1074D40005490093054A09680548082301F020F886
:1074E40003B05DF804FB00BF142A0020D4D70200C7
:1074F4006C22002007B50023009301460823034AA9
:10750400034801F00DF803B05DF804FBCCD702008A
:107514006C22002013B500230C460093014604237B
:10752400074A084800F0FCFF38B9074B142202FB55
:1075340004340123237402B010BD0E20FBE700BF06
:10754400C8D702006C220020E829002037B50A4879
:107554000A4B42689C8819685388032503330570D5
:107564009BB2002000909B0001EB8401044800F0D2
:10757400D7FF03B030BD00BFCC290020142A00205F
:107584006C22002010B50146044800F0CDFC1C22FA
:107594000446002105F0C6FE204610BDAC220020A2
:1075A4004388033300EB8303994209D382884FF65F
:1075B400FF739A4206D00088B0FA80F04009704701
:1075C4000220704701207047144A142303FB002053
:1075D40070B50B6844680D4604F580569BB15C8811
:1075E400033403EB8404B4420BD22368013308D080
:1075F40031462046FFF7D4FF012809D005D30228DD
:10760400F1D1002003E00834EDE72C60012070BDC7
:107614006388033304EB8304E5E700BFE829002013
:10762400436873B505460C466BB3254AD1688B4253
:1076340029D31269934226D813F0030223D1214996
:107644000089098988421ED12868996888421AD11C
:107654001D494868834203D900F5805083420ED304
:107664008A6993420DD902F58052934209D20123CB
:1076740023800020B0FA80F0400902B070BD1346A8
:10768400F6E70A20F6E7002323801E462388012B11
:1076940001D90020F1E7019601A92088FFF794FFA2
:1076A40018B9238801332380F0E7019B2A6899687D
:1076B4009142F1D16B60034B1B892B81DDE700BF45
:1076C4006C220020CC290020E82900202DE9F84371
:1076D4001C461E4B1B7806460F461546002B30D021
:1076E400002A30D07CB3DFF86C804FF01409A388F3
:1076F400012B01D90A201AE009FB03F318F803301F
:10770400BBB1A3880133A380F1E723681EB1998834
:10771400328891420DD11FB119883A88914208D11B
:107724009A68C5E900230A4B1B892B810020BDE818
:10773400F8832146A088FFF747FF0028E5D12060A1
:10774400DFE70220F3E70520F1E700BFC4290020AA
:10775400CC290020E829002008B5074B191D5888BA
:10776400FFF732FF18B1BDE80840FFF7EFBEBDE8F0
:107774000840FFF78BBE00BFCC2900202DE9F04F55
:10778400A04FDFF8A49289B00646B8463B6823B9F7
:1077940049469D4800F002FC3860D8F8005029782A
:1077A4004B1E052B00F21281DFE813F00600760071
:1077B4007600060106015D0126B1944B00225A6051
:1077C400012424E02B79032B1DD8DFE803F01502F4
:1077D400424D8F490B78022B084631D00B7D022B8A
:1077E4004FF001032ED114225343C2180020C85471
:1077F4005068FFF77FFE03E001232B71FFF766FE5D
:10780400002800F0D380814B00225A600E241422F9
:10781400002103A805F086FD41F61D539C4208BFD4
:107824000024D8F8003004941A78023A042A00F2AA
:10783400D381DFE812F0B401C001E301EB01F201EE
:107844000023D0E7714A13700023536041F61D549E
:10785400DDE770497048002302222B718A800122DF
:10786400096800F0E1FECBE76A4C00262E7120681F
:10787400674DFFF73FFE694BD4F800C05A881423C4
:107884005343EA18EE5451682160A188C2F804C039
:1078940011810222A280B3E7B5F814A0AA7DDFF813
:1078A40070B1AEB1022AEB8806D9142101FB0AB1EA
:1078B400DA1C088902440A81142202FB0ABAC3F5BD
:1078C4007F43BAF80A20FD331344AAF80A3077E755
:1078D400142303FB0AB318895C6804EB8004062AAA
:1078E40005D8DFE802F0264C34421C5866000F2409
:1078F400AA7DEB88022A06D9142101FB0AB1DA1CFD
:10790400088902440A81142202FB0ABAC3F57F43A0
:10791400BAF80A20FD331344AAF80A3077E740483E
:10792400404900234360AB690360FFF779FE0028F8
:107934005AD00223AB75002300930423EA1821468E
:10794400354800F0EDFD002830D00E24D0E72B6937
:10795400002B0CBF01230323AB750023009305F117
:107964000C02042304F10801EAE70123AB750022A9
:10797400EB8800929B002A6904F10C01E0E70329DB
:1079840014BF06230523AB7500230093042305F1DC
:107994000802E118D4E70623AB75224B1988204B63
:1079A4005868FFF7B7FD04460028A1D109B0BDE827
:1079B400F08F41F61D549BE7002E7FF401AF2B7925
:1079C400012B33D004D3022B3FF440AF0F241EE726
:1079D40002232B710DF10A01EB68039303A8CDE98F
:1079E4000466FFF71DFE08B90A2410E70498BDF8E1
:1079F4000A108388EB8003882B81FFF78BFD0446F4
:107A040027E000BFE4290020AC220020C429002084
:107A1400E8290020142A00206C220020CC29002010
:107A2400A82900201C2A0020DC290020DFF808A255
:107A340003AA53463146A81DFFF748FE044660B921
:107A4400BAF804100498FFF765FD04460A2C3FF4C5
:107A5400FDAE002C7FF4DBAEA8E708223146504689
:107A640005F060FCF2E7002E7FF4AAAE6D4B1A7BA2
:107A7400B2B11E731A78013A062AA7D801A151F8A7
:107A840022F000BF2F7B0200557B0200737B0200B3
:107A9400797B0200D17902007F7B0200957B020092
:107AA4001A78072AE6D801A151F822F0D17A020007
:107AB400797A0200797A0200F77A02000B7B0200DD
:107AC4002B7B02002B7B0200F37A02001A895649B1
:107AD40001321A8100225A801A730A78B2FA82F2A9
:107AE40052099A720A7DB2FA82F25209DA720122BA
:107AF40007E04E4958688A884088033202448A80E5
:107B040002221A70B6E7484C5A884849142505FBE6
:107B140002420868546850608888108102228A8072
:107B24000C600622EDE70722EBE79A7A32B9DA7A9B
:107B34008AB900221A705A805A6087E63A490022AC
:107B44009A72CA68002AF2D1097C0029EFD05A80BF
:107B5400FFF702FE53E70022DA72334A116A002962
:107B6400E7D192F82420002AE3D00122EFE7FFF7BF
:107B7400EDFC44E7FFF78AFC41E706221A702A4A23
:107B84005B88142101FB03235868FFF7B3FC36E735
:107B940007221A7000225A60FFF798FC2FE701228F
:107BA4008DF80C201A89ADF818209A88DB68ADF896
:107BB4001A20059310E002228DF80C201A89ADF8E2
:107BC40018209A88ADF81A20DA689B7D05929A1FCE
:107BD400534253418DF81C3003A8FFF719FC0026CB
:107BE40049461348C8F8006000F003FA012111481F
:107BF40000F06CFA00287FF4C9ADD7E603228DF8B3
:107C04000C20DA88ADF818201A89CFE70422DB8823
:107C14008DF80C20ADF81830DEE705238DF80C3014
:107C2400DAE700BFCC290020E8290020142A00202C
:107C3400AC220020102A0020202A00204068FFF7F0
:107C44009DBD000008B50121044800F029FA18B9C7
:107C5400BDE80840FFF792BD08BD00BF102A002010
:107C64002DE9F3419846354B1B7806460D46002B0B
:107C74005BD000295BD009884FF6FF73994258D036
:107C84006B88002B55D06B689B0754D14AB92F8958
:107C94000DF102013846FFF7CBFB30B102B0BDE86D
:107CA400F08113885788ADF8023001A8FFF76AFC09
:107CB400044658B9BDF80230214A142101FB0323BC
:107CC40058890338C01B58810820E7E700238375CF
:107CD400BDF8023083826B68036180F80080012163
:107CE400184800F0E8F92B882381B8F1030F6B885A
:107CF400A38004BF0423A3754FF0000508BF3368B5
:107D0400E06008BFA361E780658101A90E4800F027
:107D140035F936B1E36833600C4B75601B89B57275
:107D24003381FFF78FFF0020B8E70220B6E7052074
:107D3400B4E70420B2E70320B0E700BFC429002061
:107D4400E8290020E0290020AC220020CC290020D2
:107D540073B50D460446C8B1C1B10DF10601FFF774
:107D64005FFCA8B10B4BBDF806006668142202FB49
:107D7400003001210C3000F09EF963682E600C3352
:107D84006B600123A372002002B070BD0520FBE7E5
:107D94000A20F9E7E829002013B50446A8B10DF13B
:107DA4000601FFF73DFC90B10B4ABDF806301421E3
:107DB40001FB0323DA6862B1A27A52B1DA680020C7
:107DC400013ADA60A07202B010BD0520FBE70A2078
:107DD400F9E70620F7E700BFE82900200B4B1B78E2
:107DE40037B504460D4663B168B10DF10601284666
:107DF400FFF71EFB18B9BDF806302380658003B079
:107E040030BD0220FBE70520F9E700BFC4290020AC
:107E1400104B1B7810B5B3B1B8B10288022A16D83A
:107E24000D494388142404FB02129C1C51898C4282
:107E34000DDAC3F57F43FD330B44538100230380E4
:107E44004380184610BD0220FCE70520FAE7042011
:107E5400F8E700BFC4290020E829002002230022FB
:107E6400FFF7FEBE12B10223FFF7FABE05207047EA
:107E740018B103230022FFF7F3BE0520704700006A
:107E8400104B1B7813B50446ABB14FF6FF73984201
:107E940013D001A8FFF776FB88B1052303700123F3
:107EA4000371C48001A9084800F068F8FFF7CAFE0E
:107EB400002002B010BD0220FBE70420F9E70820EF
:107EC400F7E700BFC4290020AC22002007B5ADF8B5
:107ED400060002A820F8041D01460DF10600FFF774
:107EE400F5FB03B05DF804FB13B502AC134624F8AC
:107EF400020D0A4600202146FFF7E8FB02B010BD40
:107F040013B502AC134624F8020D0A46204600219C
:107F1400FFF7DCFB02B010BD20B119B103680B60A0
:107F2400002070470520704737B550E8013F9DB2E7
:107F3400C48925448489A54228BF2D1B0489A542F0
:107F440002BFBFF32F8F002207E0C5EA030540E814
:107F54000154002CE9D14FF001028DF80320019364
:107F6400019B9DF803200B6002F0FF0322B10B88F4
:107F74000068184403B030BD1846FBE70A884B88F4
:107F84009A4209D150E8012FC2EA024240E8012393
:107F9400002BF7D1012070470020704737B550E817
:107FA400023F1FFAA3F5C488A54202BFBFF32F8F77
:107FB40000220DE0C48925448489A54228BF2D1BD5
:107FC400C3EA054540E80254002CE8D14FF0010211
:107FD4008DF803200193019B9DF803200B6002F0B0
:107FE400FF0322B14B880068184403B030BD184623
:107FF400FBE70A884B889A4209D150E8022FC2EA6B
:10800400224240E80223002BF7D1012070470020D0
:10801400704701F01F024B090121914000EB8300DE
:1080240000F01DB801F01F0301229A404B0900EB38
:108034008300D14300F029B84B0901F01F0150F827
:108044002300C84000F00100704750E8002F0B46A1
:1080540040E8003C9CF0000FF7D11046704750E810
:10806400003F43EA010240E8002C9CF0000FF6D1E7
:108074001046704750E8002F02EA010340E8003C34
:108084009CF0000FF6D11046704750E8003F03EA19
:10809400010240E8002C9CF0000FF6D11046704716
:1080A40050E8002F02EB010340E8003C9CF0000F75
:1080B400F6D11046704750E8003F03EB010240E858
:1080C400002C9CF0000FF6D11046704750E8003F9A
:1080D400A3EB010240E8002C9CF0000FF6D11046FF
:1080E40070470121FFF7BBBF0021FFF7C3BF10B5E5
:1080F40090B1D0E9012301689B1ADBB20A60013B0D
:10810400DBB2FF2B026802D10020107110BD116890
:108114004C1C14600B70F2E70E20F7E737B50546E8
:1081240002A8002400F8014DFFF738F92A686B68AB
:10813400116899420ED9481E106011F8014CEB6881
:10814400A98A01FB0434AB6811791B1ADBB299428A
:1081540038BF13719DF80700FFF744F9204603B0B8
:1081640030BD37B5054602A8002300F8013D0C4692
:10817400FFF714F92A681368591C1160E968641A36
:10818400A98AB4FBF1F41C709DF80700FFF72AF9E3
:1081940003B030BD826810B504462AB14369016852
:1081A400006998470023A36010BD0EB403B503997A
:1081B40029B102AA04AB42F8043D00F06BF802B006
:1081C4005DF804EB03B07047826830B40468551C52
:1081D4008560A154D0E901329A4202D330BCFFF742
:1081E400D9BF30BC704700002DE9F84F9946DDE94E
:1081F4000A431746824688460A460126BA420FD2E7
:108204004E4538BF4E4613F0010B01D164B900242A
:108214000125B9F1010F1AD909F1FF397D43F8E7B6
:10822400B2FBF7F20136E9E79B070ED5B9F1000F6F
:108234000CBF30252025A642EAD2013C29465046EF
:10824400FFF7C2FF002CF6D1E1E72025F3E7B8FBE6
:10825400F5F39F42E2D9DFF83890B8FBF5F35046C6
:1082640019F8031005FB1388FFF7AEFFB5FBF7F50C
:10827400002DF2D1BBF1000F02D00CB1A64201D304
:10828400BDE8F88F20215046013CFFF79DFFF4E73D
:10829400EBD702002DE9F74F054690460E4600291C
:1082A40000F03A8116F8011B002958D0252940F026
:1082B400D180002702E047F001071646324612F843
:1082C400013B2D2BF7D0302B04D02B2B05D147F0BD
:1082D4000407F2E747F00207EFE700242A2B06F130
:1082E40001021BD1D8F80030191D1B68C8F8001012
:1082F4001C44164633782E2B1CD101364FF0000A4D
:10830400314611F8012BA2F13000092814D80A23B0
:1083140003FB0A23A3F1300A0E46F1E712F8013CED
:10832400A3F130010929E5D80A2101FB0434303CCA
:108334001646D3E74FF0000A324612F8011B01F04B
:10834400FB0068281646F8D0692916D054D8582955
:1083540070D00ED825297DD03378002BA2D12B7B69
:10836400002B00F0D980284603B0BDE8F04FFFF79A
:1083740011BF632968D06429EED1D8F80020D2F85F
:108384000090111D89EAE972C8F80010A2EBE972A5
:108394004FF0010B092A61DCD34538BFD3462CB119
:1083A400B9F1000F01DB790700D5013CBA0702D50A
:1083B400BAF1000F04D0FB0702D4002C54D10024DE
:1083C400B9F1000F58DAC9F100092D212846FFF749
:1083D400FBFE07F00302022A05D1BAF1000F02D115
:1083E400002C4DD10024CDE9004753460A224946CA
:1083F4002846FFF7F9FEAFE7732954D016D8702941
:10840400AAD1D8F800301A1DC8F800203021284617
:108414001C68FFF7D9FE78212846FFF7D5FE002215
:108424000823CDE9003221461022E1E775292FD037
:10843400782991D1D8F800100A1DC8F80020CDE998
:108444000047534610222CE0D8F800301A1D197842
:10845400C8F800202846FFF7B7FE7DE70A230BF192
:10846400010B92FBF3F295E7A345A9D220212846FC
:10847400013CFFF7A9FEA0E77807AAD52B21A5E7C1
:10848400A345B0D230212846013CFFF79DFEA7E763
:10849400D8F80010CDE900470A1DC8F8002053465B
:1084A4000A220968A4E7D8F800301A1DC8F8002089
:1084B400F907D3F8009012D54F46A7EB090B17F82C
:1084C400011B41B9A345BFF447AF20212846013C15
:1084D400FFF77AFEF6E72846FFF776FEEDE7B9F1F7
:1084E400000F17D0484604F072FF0746BC4200D97B
:1084F40054B909F1FF3919F8011F00293FF42CAFD1
:108504002846FFF761FEF6E720212846013CFFF7E5
:108514005BFEEBE74F46E9E703B0BDE8F08F0000F0
:108524002DE9F34178B9354B354A1888354B0E247B
:1085340000040094344940F00100FEF7EDFA2046AF
:1085440002B0BDE8F0813AB92C4B304A18882D4B63
:108554000E2400040094EDE7D0F800C0BCF1000F35
:1085640007D1264B2A4A1888264B08240004009475
:10857400E0E73BB9214B274A1888224B0924000421
:108584000094D7E74768D7F80480B3FBF8F708FBF3
:1085940017373FB1194B204A18881A4B0924000495
:1085A4000094C7E78F0707D0144B1C4A1888154B53
:1085B400102400040094BDE712F0030F07D00F4B02
:1085C400174A18880F4B102400040094B2E7C768B8
:1085D400B9420BD34C1E05691C44AC4206D8DCF8E6
:1085E4000C40A44602B0BDE8F0416047034B0D4A7D
:1085F4001888044B1024000400949BE758220020A0
:1086040096D80200FBD702009BD8020018D90200BA
:108614000CD90200CBD802001ED9020048D90200AE
:1086240060D9020083D90200F7B570B9254B264AF8
:108634001888264B0E2400040094254940F00100BC
:10864400FEF76AFA204603B0F0BDD0F800C0BCF1D2
:10865400000F07D11B4B1F4A18881C4B0824000429
:108664000094EAE73AB9174B1B4A1888174B0924B8
:1086740000040094E1E74768D7F800E00EF1FF3703
:108684000F4207D00F4B154A1888104B10240004D2
:108694000094D2E7C768B9420CD34C1E05690EFB9F
:1086A4000244AC4206D8DCF81040A44603B0BDE84E
:1086B400F0406047034B0A4A1888044B1024000416
:1086C4000094BAE75822002096D802000ED802007F
:1086D4009BD802000CD90200CBD8020021D802009A
:1086E40047D8020029DF704728DF704770B5036858
:1086F4009D6886B004460E466DB11422002168467A
:1087040004F010FEA3680593237901962BB1012B85
:108714000DD06846A84706B070BD01238DF800301F
:1087240023690293E368039363690493F1E70223E3
:108734008DF80030E3681B030293F5E7034B187AC6
:108744000122B0FA80F05A7440097047282A0020A8
:1087540070B5244D244E2B7A2C463BB9234924482A
:10876400FFF71CFC306008B9686070BD02232372F7
:1087740033681A7972B1012A24D018460321FFF70D
:10878400B5FF00232372636018491948BDE870409F
:10879400FFF72FBCD3E90520121AB2F5805F28BF7A
:1087A4004FF48052D3E903159208012A014438BFDB
:1087B40001222844FFF796FF50B11128DDD101238F
:1087C4002372D2E7D3E903021044FFF78DFFF3E7E6
:1087D400237C002BC9D10146BDE87040022000F083
:1087E40009B800BF282A0020402A00203C2A002083
:1087F400C022002038B5831E012B45D8234C237A90
:10880400002B41D0022B09D1032830D0204B1B6808
:108814000022E2601A793AB1012A22D0637C7BBB40
:10882400BDE83840FFF794BFD3E905128D1AB5F5BA
:10883400805F94BF521902F580529A619142EDD142
:1088440002284FF0000308BF19462372104B18BFCB
:108854000D211868FFF74AFF0E490F48FFF7C9FBBF
:10886400DCE71A6901321A615B699A42E7E7E36857
:108874000133082B01D8E360D0E70023E360DFE78E
:10888400BDE8384004F01CBC38BD00BF282A0020D5
:10889400402A00203C2A0020C022002000F0FD03D2
:1088A400012B08D1044B00225A74421E50425041FD
:1088B4001874FFF74DBF7047282A0020FFF717BC34
:1088C400F8B546790146721E0546002393422D6889
:1088D40003D30024A64202D8F8BD0133F6E70F689B
:1088E4002846FFF73EFC01343946F3E72DE9F84307
:1088F400868ACD1C0746FFF711FC043E3544044626
:10890400B5FBF6F5F0B14FF48073EDB28380C68009
:10891400013D076081464FF00008A84512D2384651
:10892400FFF7FCFB064648B163790133637108F134
:108934000108C9F8000007608146EEE72046FFF70A
:10894400BFFF34462046BDE8F88301210430FFF719
:10895400B2BB10B5012104460430FFF7B7FB10F099
:10896400FF0F04D12046BDE81040FFF7A9BF10BD9A
:108974002DE9F843C7880546181D8846B0FBF7F46F
:10898400164607FB14003CB9A7EB0009B14528BF04
:10899400B14626B9BDE8F8832D68013CF3E70430FD
:1089A400A6EB09064A4608EB0401284404F091FCAE
:1089B400B7424C442D68B9464FF0000028BFB14679
:1089C400E7E72DE9F843C7888846191D0546B1FB3A
:1089D400F7F4164607FB14113CB9A7EB0109B1459E
:1089E40028BFB14626B9BDE8F8832D68013CF3E7FA
:1089F40004312944A6EB09064A4608EB040004F0B6
:108A040068FCB7424C442D68B9464FF0000128BFBA
:108A1400B146E7E741DF7047064B10B500241C70F0
:108A2400054B1C60BFF35F8F0449054800F030F824
:108A3400204610BD4C2A0020502A0020C8D902002C
:108A4400442A002007B502A8002300F8013DFEF7E0
:108A5400A5FCF1EE103A23F09F03E1EE103ABFF3C8
:108A64005F8F0A4B4022C3F884219DF80700FEF76C
:108A7400B9FC04F035FB20B1FFF7CCFF03B05DF87F
:108A840004FB20BF40BF20BFF8E700BF00E100E0C7
:108A94000B684A684360934208BF0023016008BF23
:108AA40043607047436843B10268916852680B445D
:108AB4009342436004BF0023436070470D4930B5BF
:108AC400A1F594720225914201D800200EE08B1A80
:108AD400DB1093FBF5F302EBC30452F8333083420B
:108AE40005D802D204F10802EDE7606830BD2146E2
:108AF400E9E700BF18DB020008B5FFF7DFFF024B10
:108B0400002808BF184608BDDDD90200054B1B68C4
:108B1400082B01BF044B1868B0FA80F0400918BF55
:108B240000207047300100103401001008B54FF0E8
:108B340080430022C3F80C21C3F81021C3F8382560
:108B44004FF0805203F54043D2F80414C3F82015C3
:108B5400D2F80814C3F82415D2F80C14C3F8281555
:108B6400D2F81014C3F82C15D2F81414C3F8301525
:108B7400D2F81814C3F83415D2F81C14C3F84015ED
:108B8400D2F82014C3F84415D2F82414C3F84815B5
:108B9400D2F82814C3F84C15D2F82C14C3F8501585
:108BA400D2F83014C3F85415D2F83414C3F860154D
:108BB400D2F83814C3F86415D2F83C14C3F8681515
:108BC400D2F84014C3F86C15D2F84424C3F87025C5
:108BD400FFF79CFF10B1384B384A1A60FFF796FF35
:108BE40018B1374BFB22C3F81825FFF78FFF48B1A4
:108BF4003449354B0A681B6822F00F0203F00F0357
:108C040013430B60FFF782FF18B1304B4FF400722F
:108C14001A604FF08043D3F80024D20744BF6FF0AA
:108C24000102C3F800242A4AD2F8883043F47003BE
:108C3400C2F88830BFF34F8FBFF36F8F4FF010230C
:108C4400D3F80022002A03DBD3F80432002B2FDAF6
:108C5400204B0122C3F80425D3F80024002AFBD0BA
:108C64004FF010221221C2F80012D3F80024002A77
:108C7400FBD04FF010231222C3F80422154B1A46DE
:108C8400D3F800140029FBD00021C3F80415D2F84E
:108C94000034002BFBD0BFF34F8F0D490E4BCA6835
:108CA40002F4E0621343CB60BFF34F8F00BFFDE7D4
:108CB4000A4B0B4A1A6008BD8C56004048810300D9
:108CC40000F00040E40E00405802001040960240BC
:108CD40000ED00E000E001400400FA05D422002089
:108CE4000090D00338B5084C04F108030546002869
:108CF40018BF1C4623682BB11A6822605B6828469B
:108D04009847F7E738BD00BF5C2A002020B9054B1F
:108D140001225A70FFF7E6BF012802D1014A907080
:108D2400F8E77047542A002020B9034B01225A70F7
:108D3400FFF7D8BF704700BF542A002038B50B4C4A
:108D4400237883B90A486360A3602361E36000F079
:108D540005F9054604F0C4F908B900F00DF901233A
:108D64002370284638BD8525FBE700BF542A002020
:108D7400118D020037B5184CA378054603F0FF02A5
:108D84009BB110B143680120984700230DF10700FF
:108D94008DF80730FEF702FBE3689DF80700013306
:108DA400E360FEF71FFB03B030BD0DF107008DF843
:108DB4000720FEF7F3FA25B1226913463BB92A606E
:108DC4002561E368002BE7D100F0EAF8E4E79D426F
:108DD400F7D01B68F2E700BF542A002037B502A879
:108DE4000023094C00F8013DFEF7D8FAE368013B83
:108DF400E360E56815B900F0E1F8A5709DF8070097
:108E0400FEF7F0FA03B030BD542A0020012813B550
:108E140009D003D303281BD002B010BD0F4B01228D
:108E2400C3F88020F8E702A800230D4C00F8013DA8
:108E3400FEF7B4FA23780BB9FFF780FFE3689DF8D7
:108E440007000133E3600123A370FEF7CBFAE3E7E5
:108E540000F092F8FFF7C2FFDEE700BF00E100E098
:108E6400542A00201FB503788DF80030436801931D
:108E7400037A8DF80830C3680393054A054B6846A6
:108E840053F8213052F82110984705B05DF804FBDF
:108E9400682A0020702A00201FB503788DF800305E
:108EA4004368019383688DF80830C3680393054AC7
:108EB400054B684653F8213052F82110984705B005
:108EC4005DF804FB682A0020702A0020F0B5194BD5
:108ED4000678DFF870E043F82620174B94460A69B9
:108EE40043F826204B7F0EF806300C4607460FCC7D
:108EF40089B06D460FC594E80F0085E80F001EF891
:108F04000630049653B1BCF1000F0C4A694608BF01
:108F14000022381D00F0C6FC09B0F0BDBCF1000F02
:108F2400074A694608BF002207F10C0000F0A0FAC6
:108F3400F2E700BF702A0020682A0020698E020030
:108F44009D8E0200782A002000F18040002382B028
:108F5400036003680193019B02B07047054A1379CB
:108F64002BB9012110601171537118467047852087
:108F7400704700BF7C2A0020084B1A68D20706D429
:108F8400E02283F800230122C3F880211A604FF005
:108F940080430122C3F81825704700BF00E100E0B8
:108FA40008B54FF48270FFF7CFFF4FF080430222E1
:108FB400C3F8042301229A6008BD0000044B012277
:108FC4001A604FF08042D2F81834DB03FBD47047A8
:108FD4000C000040124B1B6810B573B14FF4807045
:108FE400FFF7B2FF4FF080430122C3F808230D4B73
:108FF400587910B95A711B6898470B4B1B6873B1A9
:109004004FF48270FFF7A0FF4FF080430222C3F8B1
:109014000823044B01201B68BDE81040184710BD0D
:10902400000100407C2A00200401004000F180403F
:1090340000F5C040002382B0036003680193019BE4
:1090440002B0704703681F2B83BF03F01F03036044
:1090540001484FF0A04070470003005007B502AB31
:1090640043F8040D1846FFF7EDFF019B00EB830066
:10907400D0F8003723F44033C0F80037D0F8003775
:1090840043EA0141C0F8001703B05DF804FB000097
:109094002DE9F04F002489B0CDE902445F4A604EC7
:1090A400604D01211368A2F5C040012B80B206D1A6
:1090B400D6F804330B4202D0FFF7B8FF0C43043256
:1090C400AA424FEA4101EDD1574B1B68012B0ED147
:1090D4004FF4BE70FFF7AAFF4FF0A04344F00044E2
:1090E400D3F810350293514BD3F81035039314F091
:1090F400FF0F1AD04E4F00250126344210D0AB008A
:1091040003F1804303F5C043D3F81005D3F81015D9
:1091140057F82530C0F30520C1F3014103B1984746
:109124000135082D4FEA4606E7D1002C72DA04AE69
:109134000023049373604FF0FF33CDE906333C4FB3
:109144004FF0010800252C467B1993F96020531C2D
:1091540047D0D2B222F0C00908A84FEAD90300EBE5
:10916400030B02F007011BF8080C08FA01F108428E
:1091740037D007EB0900920990F9300057F820A086
:10918400BAF1000F05D1032A2BD1F05C0843F05447
:1091940001E0032AF9D001A8CDF80490FFF752FFAB
:1091A400019B03F5E07350F823301BF8180C0842B8
:1091B400C3F3014305D0022B13D1032A0BD111466B
:1091C40004E0032B0DD1032A05D102214846FFF701
:1091D40045FF0134E4B2BAF1000F02D0114648460B
:1091E400D0470135042DAFD1A4B14FF0A04302996B
:1091F400D3F8102503F540739142D3F8103502D10A
:109204000399994206D002920393049A059B06920D
:10921400079397E709B0BDE8F08F00BF00610040F5
:1092240000600040206100407C6100400003005069
:10923400842A0020014B1B68184700BFF02A002035
:109244000D4B984237B50D4610D102A8002300F803
:10925400013DFEF7A3F8094B1C7914B901221D60E6
:109264001A719DF80700FEF7BDF814B9002003B089
:1092740030BD1120FBE700BF00200040F02A002091
:10928400034B984201BF034B00221A601A717047C6
:1092940000200040F02A00200023435082B04358AD
:1092A4000193019B02B070470A4610B54FF48E71CA
:1092B400FFF7F2FF136A9168C95C136A0133136202
:1092C400C0F81C1510BD8B690A4610B54FF48471A3
:1092D40023B9FFF7E1FFD0F8183510BDFFF7DCFF25
:1092E400536AD168D0F81805C854536A01335362DD
:1092F400F3E700001FB501238DF80030044BCDE9DE
:109304000110D3E900126846904705B05DF804FBEC
:10931400F82A002030B54C4AD2F8043313F4007F05
:1093240085B015464FD0D2F82431002B4BD04FF4E2
:1093340092711046FFF7B0FF4FF40173C2F808337F
:10934400424B93F8291009B9012151603E49022288
:109354008DF80020D1F88024C1F8802403929A6902
:109364000292DA6801920022C3E906226846D3E930
:10937400001290473448D0F81C315BB133490A6A73
:109384004B699A420A464BD291F82830002B47D1B8
:10939400FFF78AFF2C4AD2F8443193B14FF4A271FB
:1093A4001046FFF779FF294B93F8291009B10121E1
:1093B40011609A692AB100229A61586AD968FFF744
:1093C40099FF05B030BDD5F804335B07D2D5D5F885
:1093D4000831002BCED01D4C1B482146FFF773FFEC
:1093E400636AA2699A422346C4D1E269E1684AB138
:1093F4002369E3600023606AA261E3616362FFF7AB
:1094040079FFB7E794F829200AB901226A600E4A65
:109414004FF40170C2F8080300229A61586AEEE71B
:109424004FF48E710848FFF737FF51690029B1D016
:109434000023029191688DF80030019153616846D0
:10944400D2E900139847A5E700200040F82A00203D
:109454001F2886BF00F01F00044B4FF0A04300F507
:10946400E070022243F82020704700BF0003005040
:109474002DE9F843664B047991462C2202FB043211
:10948400064692F82A200D469846002A40F0BC80F1
:1094940060490068FFF7D4FE0746002840F0B68014
:1094A40029684A1C10D01F2987BF01F01F035A4A9C
:1094B4000B464FF0A0420120984003F5E073C2F838
:1094C4000805032042F823006868431C0DD01F28B8
:1094D4008BBF00F01F0303464F4A4FF0A04203F531
:1094E400E0734FF0000C42F823C03368AA6995F882
:1094F40014C0C3F824256A7DBCF1010F4CEA0202B2
:10950400C3F86C25C3F81405C3F80C152BD1A9684E
:10951400481C0DD01F298BBF01F01F020A463E488C
:109524004FF0A04002F5E0724FF0000C40F822C06A
:10953400E868421C13D01F2887BF00F01F0C364A6E
:1095440084464FF0A0424FF0010E0EFA0CFE0CF5CB
:10955400E07CC2F808E54FF0030E42F82CE0C3F8B3
:109564000805C3F810152C23634308EB0302C2F863
:1095740004902A6948F80320B9F1000F31D04FF460
:109584008E7130682D7FFFF787FE30684FF4A2712B
:10959400FFF782FE3268214BC2F80433120B53B238
:1095A400002BA8BF03F160404FEA53134FEA451163
:1095B400BABF1B4802F00F0500F561404FEA830370
:1095C400C9B203F16043B4BF415580F8001303F5F9
:1095D400614302F01F02012101FA02F2C3F8802163
:1095E4001A6033680422C3F800252C2303FB048388
:1095F4000022C3E9062283F829205A61012283F854
:109604002A203846BDE8F8830827FAE71127F8E747
:10961400F82A002019930200000300508000020081
:1096240014ED00E02DE9F04103680479254D002292
:10963400C3F800252C2202FB04520646526872B17C
:10964400214AC3F80823190B4AB20120520901F038
:109654001F0100FA01F120321C4840F82210D3F80F
:109664000C05D3F81485D3F80815D3F810754FF00A
:10967400FF329042C3F81425C3F80C25C3F808251B
:10968400C3F8102501D0FFF7E3FEB8F1FF3F02D085
:109694004046FFF7DDFE7A1C02D03846FFF7D8FEBD
:1096A4004B1C02D00846FFF7D3FE3068FFF7E8FDF5
:1096B4002C2303FB0454002384F82A306360BDE8A0
:1096C400F08100BFF82A00208402020000E100E0DB
:1096D4002DE9F843224F06794FF02C0909FB067453
:1096E40080466569002D37D16261A16025624FF41F
:1096F4008E71006884F82850FFF7CEFDD8F800007A
:10970400012383602146FFF7CFFD6368A1462BBB8D
:10971400D8F80050226A63699A4212D3D8F800300C
:10972400D3F81C21002AFBD00122DA6000202C236C
:1097340003FB067600237361BDE8F88394F82830B0
:1097440043B9D5F81C31002BF8D049462846FFF719
:10975400ABFDDFE70F20EAE71120EDE72846EBE752
:10976400F82A00200023435082B043580193019B00
:1097740002B070471FB501238DF80030054B8DF8FA
:10978400080001916846D3E90012904705B05DF8DE
:1097940004FB00BF242B00207FB5384AD2F8246193
:1097A400002E49D010464FF49271FFF7DBFF0223DD
:1097B4008DF80030D2F88034C2F880340393D2F8A4
:1097C4003C358DF808302E4BDA6801920022C3E94B
:1097D40006226846D3E900129047284AD2F8443159
:1097E40073B14FF4A2711046FFF7BCFF244B996983
:1097F40031B100219961D2F83C05D968FFF7BAFF6D
:109804001E4AD2F82031ABB14FF490711046FFF7E5
:10981400A9FF1B4B596969B1D2F84C158DF8081092
:10982400002299688DF8002001915A616846D3E9B5
:109834000012904704B070BDD2F81031002BCCD088
:109844004FF488711046FFF78DFF0D4BD2F83C059D
:1098540099698842C1D1DC69D96864B1D2F80052EF
:1098640025F02005C2F800521A699C61DA60DE61B5
:10987400FFF780FFB1E79C61FAE700BF00200040DA
:10988400242B00201F2886BF00F01F00044B4FF03C
:10989400A04300F5E070022243F82020704700BF87
:1098A400000300502DE9F8436A4B067991462422BF
:1098B40002FB0632044692F820200D469846002A00
:1098C40040F0C48064490068FFF7BAFC07460028EA
:1098D40040F0BE802868421C10D01F2887BF00F0CB
:1098E4001F035E4A03464FF0A0420121994003F54D
:1098F400E073C2F80815032142F8231069684B1C71
:109904000DD01F298BBF01F01F030B46534A4FF0A4
:10991400A04203F5E0734FF0000C42F823C0236823
:10992400AA6995F814C0C3F824256A7DBCF1010F17
:109934004CEA0202C3F86C25C3F80C05C3F81415ED
:109944002BD1A968481C0DD01F298BBF01F01F0221
:109954000A4642484FF0A04002F5E0724FF0000C76
:1099640040F822C0E868421C13D01F2887BF00F0CB
:109974001F0C3A4A84464FF0A0424FF0010E0EFAF3
:109984000CFE0CF5E07CC2F808E54FF0030E42F83B
:109994002CE0C3F80805C3F810152423734308EB1F
:1099A4000302C2F804902A6948F80320B9F1000FB1
:1099B4003BD04FF4887120682D7FFFF7D3FE4FF41E
:1099C40090712068FFF7CEFE4FF492712068FFF784
:1099D400C9FE20684FF4A271FFF7C4FE2268204B31
:1099E400C2F80433120B53B2002BA8BF03F160403A
:1099F4004FEA53134FEA4511BABF1A4802F00F0554
:109A040000F561404FEA8303C9B203F16043B4BF78
:109A1400415580F8001303F5614302F01F02012150
:109A240001FA02F2C3F880211A6023680822C3F8FD
:109A34000025242303FB06830022C3E906225A617E
:109A4400012283F820203846BDE8F8830827FAE786
:109A54001127F8E7242B00209D97020000030050F3
:109A64001003020014ED00E02DE9F04103680479CD
:109A7400254D0022C3F80025242202FB0452064689
:109A8400526872B1214AC3F80823190B4AB2012063
:109A9400520901F01F0100FA01F120321C4840F87C
:109AA4002210D3F80C05D3F81485D3F80815D3F88D
:109AB40010754FF0FF329042C3F80C25C3F81425FB
:109AC400C3F80825C3F8102501D0FFF7DBFEB8F171
:109AD400FF3F02D04046FFF7D5FE7A1C02D038463D
:109AE400FFF7D0FE4B1C02D00846FFF7CBFE3068D0
:109AF400FFF7C6FB242303FB0454002384F820301F
:109B04006360BDE8F08100BF242B00201003020035
:109B140000E100E001F06043B3F1005F2DE9F041A2
:109B2400074632D11C4B0679242505FB0635984699
:109B34006C6964BB6A61A96000684FF49071FFF7B7
:109B440011FE4FF4AC713868FFF70CFE3B686A698C
:109B5400A968C3F84415C3F8482501229A606A68C5
:109B6400BAB9D3F82011D3F8582149B9002AF8D04A
:109B74000F20242303FB068600237361BDE8F081D4
:109B8400002A14BF0F200020F3E71020F6E711206D
:109B9400F4E72046F2E700BF242B002000F18040C8
:109BA40000F5E040002382B0036003680193019B49
:109BB40002B07047F0B5514B514C1B6885B0DBB116
:109BC4004FF4827094F82E20FFF7E8FF12B194F856
:109BD4002F30A3B1636802932389ADF80C30E36896
:109BE40000218DF80410002B44D12374236801A8AC
:109BF4009847002384F82F3094F82E3003B3414B58
:109C04001B68EBB14FF48070FFF7C8FF94F82D2068
:109C1400638B91B28B4238D95B1A21899BB26383DF
:109C2400CB1A616801EB4301374BC3F82C16C3F818
:109C340030264FF48270FFF7B1FF344B01221A60D3
:109C4400334B1B685BB14FF48870FFF7A7FF002309
:109C540004A82374022300F80C3D236898472D4B75
:109C64001B6813B34FF48A70FFF798FF0023237423
:109C740005B0F0BD208B608363602081E160002A21
:109C8400B4D1214B01221A60B0E7D2D1E36801219B
:109C940084F82F103BB1002161831B49C1F82C3695
:109CA400C1F83026C5E76383C3E766694FF0004710
:109CB4000125002EDCD0B6FA86F227FA02F34632EA
:109CC400920026EA030602F1804303F5E0431B6891
:109CD400002BEED01046FFF761FFA2F58C72D3087B
:109CE40082F00402C2F380028DF808308DF804502B
:109CF4008DF80920236801A89847DAE70471004029
:109D0400482B0020007100400070004004700040A7
:109D1400107100401471004038B51D4B044693F88F
:109D24002C0098BB1B4A19602178C2F8F0156178A1
:109D3400C2F8F415E5781874012183F82C1083F81F
:109D44002D00586183F82F0083F82E506FF00043E4
:109D5400C2F808334FF48270FFF720FF4FF480708D
:109D6400FFF71CFFA3780C485B01DBB280F80733D4
:109D74008023C0F8803103600223C2F804330DB19C
:109D8400C2F80413C2F80015002038BD0820FCE70F
:109D9400482B00200070004000E100E0244B1A7CB6
:109DA40030B5002A42D100F10C0403EB44021279CD
:109DB40022B993F82D20013283F82D2003EB4403BC
:109DC400CA790C7A1A715C718D784B782D021B015B
:109DD40005F4E06503F030032B430D7805F003052B
:109DE4002B43CD782D0305F480552B430D792D0499
:109DF40005F4E0252B434D7989792D0505F480156B
:109E0400090601F080712B430B43010101F18041EC
:109E140001F5E0410020C1F81835C1F81445C1F836
:109E24001025C1F81445C1F8102530BD1120FCE7F8
:109E3400482B0020264A274B70B505461220C2F84D
:109E440008031C7C022C03D1C2F80403112070BD4A
:109E5400187C01281DD1D86818B10223C2F8043334
:109E6400F4E7DD60198393F82E3063B91A4A136856
:109E7400002BFCD04FF48070FFF790FE144BC3F816
:109E84002C56C3F83016124B0222C3F804230020C8
:109E9400DDE7022093F82E40C2F8040301260020D7
:109EA4001E745D601981D8603CB1598393F82D30DC
:109EB400C2F82C56C2F83036C9E7C2F82C564FF413
:109EC4008070C2F83016FFF769FE20461660BEE7C0
:109ED40000700040482B002000710040084A137CA9
:109EE400DBB2012B09D192F82E0018B1054A0020EB
:109EF40013607047044A136070470820704700BF1E
:109F0400482B00200070004004700040F0B51B4F47
:109F14008BB207EB001443EA0243C4F81C35184B18
:109F240040005C6900F1010C4FF0004611F5006F30
:109F340026FA0CF64FF0800505FA00F50BBFB44382
:109F440034435C615C610CBFC7F80853C7F8045321
:109F540040244FF000455969844025FA00F040F24E
:109F6400FF75AA42054A0BBF8143014359615961F8
:109F74000CBFC2F80843C2F80443F0BD00700040AF
:109F8400482B0020124B1A7C10B5FAB900F10C01D1
:109F940003EB4102127922B193F82D20013A83F8A0
:109FA4002D2003EB410300241C715C71030103F1B8
:109FB400804303F5E04340F2FF72C3F814450549BA
:109FC400C3F81045FFF7A2FF204610BD1120FCE79F
:109FD400482B002000F8FFFF38B5134B6FF0004208
:109FE400C3F80823114A8021C2F88010104A0121C5
:109FF4001160104942F21072086808B9013AFBD1A5
:10A004000D4D0024C3F800452C7405EB44031B7F5D
:10A0140013B1E0B2FFF7B6FF0134082CF5D10023E9
:10A0240085F82C3038BD00BF0070004000E100E02E
:10A034000870004014710040482B00200023435056
:10A0440082B043580193019B02B07047F0B5467942
:10A054001F4B204F43F826207500AB19FB5CA3BBB4
:10A0640090F904308C78002BDAB2A8BF03F1604C6D
:10A074004FEA5313B8BF02F00F0E4FEA4414B4BFB3
:10A08400DFF854C00CF5614C4FEA8303E4B203F1EA
:10A094006043B4BF0CF80E408CF8004303F56143F1
:10A0A400012402F01F0204FA02F2C3F880211A60AC
:10A0B40003680A88C3F8082535447B190A795A705D
:10A0C4007C55CA789A700020F0BD0820FCE700BFD8
:10A0D4007C2B0020782B002014ED00E00368012283
:10A0E4001A604379024A03EB43030221D1547047B7
:10A0F400782B00202DE9F04106464FF480340068A7
:10A104001C4D8C40C0F84843C0F8084396F805E05D
:10A114004FEA4E0C0CEB0E072F4422F07F4297F8C7
:10A12400018001F5A87740F82720B8F1000F11D07D
:10A13400D0F80485F4446544A8EB0207424588BF7F
:10A1440007F1FF17AA7888BF07F57F47BA4201DDF8
:10A154000D200CE03BB15031890089B2FFF76EFF4E
:10A164003368C3F8044333680020C3F84443BDE8AC
:10A17400F08100BF782B00202DE9F041234EDFF859
:10A184009480234F00254FF48034D6F8043305F12E
:10A1940050018900234289B20ED005EB08039B00CD
:10A1A4001B684BB1C6F848433046C6F80843FFF76E
:10A1B40045FF3B68E8B298470135042D4FEA440453
:10A1C400E3D1124CD4F80433DA070BD5D4F80031B8
:10A1D40043B120464FF48071FFF730FF0C4B284603
:10A1E4001B689847D4F804339B070DD5D4F8043181
:10A1F40053B106484FF48271FFF720FF044B05204A
:10A204001B68BDE8F0411847BDE8F08100400240FA
:10A214007C2B002050900010034B187810B90122B9
:10A224001A70704785207047802B00202DE9F74F66
:10A234004FF0000ADFF89890204E07460425D046D8
:10A244005FFA8AFB01240DF1070004FA0BF48DF880
:10A254000780FDF7A3F814EA090F08D0336814EA5D
:10A26400030201BF2343336087F800B015469DF80D
:10A274000700FDF7B7F8D5B9114B12491888000447
:10A284005A4640F00300FCF733FC0D4B28461C886B
:10A29400FEF732FC240444F0030403460A4A0B4943
:10A2A4002046FCF72FFC284603B0BDE8F08F39EABE
:10A2B40004090AF1010AC3D1E7E700BF842B002097
:10A2C4004022002045DF0200FEDE02005CDF0200C7
:10A2D400FFFF010073B50B4689B382B301248440A8
:10A2E400C4F31001174E31B3174909680C4224D046
:10A2F400C4003588154904F1804404F5F8342D046C
:10A30400C4F81035C4F814250092024645F0030041
:10A31400FCF702FC002435882046FEF7EDFB2D04F3
:10A3240045F0030503460A4A0A492846FCF7EAFBB6
:10A33400204602B070BD0724EDE70824EBE70E24A5
:10A34400F6E700BF40220020842B00207ADF0200C1
:10A3540015DF02005CDF020038B5012303FA00F0C8
:10A36400430C5B04C3B918B10D4B1B68184215D0DC
:10A374000C4B0025C3F804050B4B28461C88FEF73C
:10A38400BBFB240444F003040346084A084920465E
:10A39400FCF7B8FB284638BD0725EDE70825EBE7B1
:10A3A400842B002000F00140402200202DDF020019
:10A3B4005CDF02002DE9F743002406460F4600F552
:10A3C400A0754FF48038A14604F150002B6880003A
:10A3D40080B26BB1D6F8043308FA04F21A4207D0FB
:10A3E400C5F800902B680193019BD7E90031984789
:10A3F4000134042C05F10405E6D103B0BDE8F08373
:10A40400F7B50579334C0C266E43A7193B7A002B1C
:10A414005ED1A2514A687A60467900681F46DAB272
:10A4240096424BD8020B53B2CE78002BA8BF03F14F
:10A434006047D2B24FEA5313B8BF02F00F0C4FEA91
:10A444004616B4BF244F07F561474FEA8303F6B2BB
:10A4540003F16043B4BF07F80C6087F8006303F5A9
:10A464006143012602F01F0206FA02F2C3F88021BA
:10A474001A60D0F804254B7822F0030203F003039A
:10A484001343C0F80435D0F808258B7822F0030272
:10A4940003F003031343C0F80835D0F810250B78F4
:10A4A40022F00F0203F00F031343C0F810350C23FE
:10A4B40003FB05440020267203B0F0BD03F15002F3
:10A4C400013340F8227050F822200192019AA6E745
:10A4D4000820F1E7882B002014ED00E00368012236
:10A4E4001A600379034A0C2101FB032302221A7226
:10A4F400704700BF882B002001F110039B00026805
:10A50400DBB20120D05001F5A87152F82100704748
:10A5140037B54FF480348C4000687BB101F15003AF
:10A524009B000025C550C3580193019BC0F8044308
:10A5340001F5A87140F8212003B030BDC0F80843EC
:10A54400F6E7F0B404689DF81070D4F8005240F2B5
:10A5540001168E4025EA0605C4F80052D4F80052CC
:10A564002B43C4F800323B46F0BCFFF7D1BF0000D8
:10A5740001490248FFF71EBF882B002000800040DD
:10A5840001490248FFF716BF942B002000900040B9
:10A5940001490248FFF70EBFA02B002000A0004095
:10A5A400032812D8012A0BD1012908D100F10E0287
:10A5B400D2B200EB40000C4B1A540020704700222A
:10A5C4000129F6D009D3022901D007207047064B90
:10A5D40000EB400018444270EFE7034B00EB4000EF
:10A5E40018448270E9E700BFAC2B002008B50122B3
:10A5F40002210020FFF7D4FF08B1072810D1072259
:10A6040002210120FFF7CCFF08B1072808D100215F
:10A614000A220846FFF7C4FF10B1072808BF00202C
:10A6240008BD00000388102B10B502D0112B1ED0DA
:10A6340010BD1A4C2168B1B901220846FFF7B0FFDA
:10A6440008B1072824D1072202210120FFF7A8FF1F
:10A6540008B107281CD1042202210020FFF7A0FF23
:10A6640008B1072814D1236801332360E0E70B4ABB
:10A674001368013B1360002BDAD1FFF7B7FF002802
:10A68400D6D0074B1B68002BD2D0BDE8104018472A
:10A69400034B1B68002BE6D09847E4E7BC2B002053
:10A6A400B82B002070470000014BD3F840057047D9
:10A6B4000080004000210148FFF71EBFC8DF0200F0
:10A6C4004FF0A042F0B5D2F80435D94301F48031FB
:10A6D40003F48033C2F80815ADF57D7D0546C2F854
:10A6E4000C35FA214068FFF7A5FB08B1FCF7B2FB73
:10A6F400374C384F26680523B6FBF3F303EB83038B
:10A70400F61A28D138883449000440F00300FCF7D5
:10A71400EBF9324B324AC3F8106101211160D3F8CE
:10A724001021002AFBD0D3F80024012AFBD04FF0DB
:10A73400A0423888D2F80435D94301F4804103F4A7
:10A7440080430004C2F8081540F00300C2F80C3539
:10A754002449FCF7C9F9388822682349000440F0E9
:10A764000300FCF7C5F96B6802A99A1E084603F5B5
:10A77400F97332F9025F07EE905AF8EEE77A9342E2
:10A78400E1EC017AF5D101AAFA2102F051FEDDEDE6
:10A79400017A38881549FDEEE77A000417EE902A0D
:10A7A40040F00300FCF7A4F9236801332360FFF7AA
:10A7B40013FC0A4B0222C3F808230D4B8022C3F872
:10A7C40080210C4B00221A700DF57D7DF0BD00BF79
:10A7D400C02B0020402200201CE00200007000403A
:10A7E4000C7000403CE002005BE0020072E00200FA
:10A7F40000E100E0AD2F002003780BB9FFF760BF44
:10A80400704700001FB5174A10685168127A01ABEF
:10A8140003C31A7000238DF800308DF801301249FB
:10A82400062368468DF80230FFF776FA08B1FCF784
:10A8340011FB01A90020FFF7B1FA08B1FCF70AFBEC
:10A84400FA210A48FFF7F6FA08B1FCF703FBFA21EC
:10A854000748FFF7EFFA08B1FCF7FCFA05B05DF81A
:10A8640004FB00BFBFDF0200FDA70200C42B0020D1
:10A87400B82D002038B500BB104D2A780AB9FFF76F
:10A88400C1FF01242C70FFF729FB4FF0A0420C48B4
:10A89400D2F80435D94301F4004103F40043C2F86B
:10A8A4000815C2F80C35002123460422FFF722FCC8
:10A8B40008B1FCF7CFFA034B1C6038BDAD2F002064
:10A8C40014E002000840024030B5012185B05C4824
:10A8D400FBF724FF08B1FCF7BDFA5A4DFBF73CFE29
:10A8E40028885949000440F00300FCF7FDF8FFF7FD
:10A8F40093FC08B1FCF7AEFA5448FFF797FC08B193
:10A90400FCF7A8FA514C524A52492078FFF7E2FC6E
:10A9140008B1FCF79FFA2078FFF71EFD08B1FCF799
:10A9240099FA07238DF80B30092300248DF8083099
:10A93400494A4A488DF80A40012302A903948DF834
:10A944000930FFF75DFD08B1FCF784FA4348FFF7CF
:10A95400C5FD07238DF80B30414A42488DF8094064
:10A96400092302A98DF80A4003948DF80830FFF7F3
:10A9740047FD08B1FCF76EFA3B4B3C49D3F8102570
:10A9840038480123D2B221FA02F200930021FFF7E2
:10A99400D8FD3448FFF7A2FDFEF73EF808B1FCF7F6
:10A9A40059FA002301224FF0A041032002FA03F4D4
:10A9B40014F4F03F18BF03F5E07403F1010318BF6A
:10A9C40041F82400202BF1D14FF0A0434FF4F03292
:10A9D400C3F80825288826490022C3F80C254FF01F
:10A9E400804301220004C3F8782540F00300FCF7FB
:10A9F4007BF8FEF7A3F908B1FCF72CFA0020FEF768
:10AA0400B9F91F231B4A1C48ADF8083002A9FFF707
:10AA14001DFB08B1FCF71EFA01230422002116488D
:10AA2400FFF768FB08B1FCF715FA1348FFF756FB6C
:10AA3400FEF708F8FBF7E2FE0028FBD1F8E700BFB9
:10AA4400ADA6020040220020D8DF0200AC2F002077
:10AA54000880004040910040A9A60200C8DF02001F
:10AA6400B9A60200D0DF0200009000400024F400E8
:10AA7400F5DF020079A8020014E002000369C1684E
:10AA84008B429DBF8268D21802F1FF3203F1FF337B
:10AA940094BF501A581A70472DE9F041D0E9026763
:10AAA4000446F61B4068964288461546384405D944
:10AAB40002F00FFC3D44E560BDE8F0813246AD1B79
:10AAC40002F007FC2A4608EB0601606802F001FC6C
:10AAD400F1E72DE9F843C5680646894617464FF065
:10AAE40000083469B3687068A54228BFE418013CC3
:10AAF400621B5C1BBC4228BF3C46944228BF1446E0
:10AB040049462844224602F0E4FBB3682544AB429C
:10AB140008BF00253F1BA044A144F560E1D1404695
:10AB2400BDE8F88310B5114C114AA2610223C4E9AF
:10AB34000433104BE361A2644FF400730E4A2362A2
:10AB4400E264002310220D49A362E01D6362E36204
:10AB5400A3656365E365226502F017FC0849204696
:10AB640002F013FC2023A37110BD00BFB02F0020FE
:10AB740081E0020038300020283000208AE0020002
:10AB84008EE00200F8B5184C182300FB033503FBD4
:10AB940000402544C46A012C0F46164611D003D345
:10ABA400022C1BD000240AE02846FFF767FF8642E8
:10ABB40005D8324639462846FFF76EFF344620460C
:10ABC400F8BD2846FFF75AFF8642344628BF04469C
:10ABD400224639462846FFF75FFFF0E72846BDE8DE
:10ABE400F840FFF776BF00BFB02F0020FFF79ABFF1
:10ABF400034B1A8882420CBF18460020704700BFDE
:10AC040054320020024B9B6903B11847704700BFC0
:10AC14003832002013B50B46497A0F4C024669B905
:10AC2400D4E901101C7A002C18BF01465868FCF7BF
:10AC340061FB08B1FFF7E6FF02B010BD00211972F5
:10AC44006369002BF8D00121ADF806008DF80410DB
:10AC540001A89847F0E700BF383200208388B3F595
:10AC6400FA7F28BF6FF4F97230B528BF9C180588A5
:10AC74004A8838BF002495420CD84088904209D3B2
:10AC84008A88A24206D303F2F310904234BF002014
:10AC9400012030BD0020FCE70388112B70B501466C
:10ACA40048D002D8102B1ED070BD122B52D0502B7E
:10ACB400FAD12F4BC288DB899A42F5D1038A022B41
:10ACC400F2D186883046FFF793FF05460028EBD083
:10ACD40001F1120000F064F930BB6868FCF74EFB28
:10ACE4000028E1D009E0C37B012BDDD14FF6FF70D2
:10ACF400FFF77EFF054620B90420BDE87040FFF74A
:10AD040081BF1C4A8E880680002303721368C5F82D
:10AD14000A300A30536843601031FFF79FFF144B29
:10AD24006872DB89002BBFD129463046BDE87040EC
:10AD3400FFF770BF8088FFF75BFF04460028B3D09D
:10AD44004068FCF71BFB08B1FFF75CFF4FF6FF738D
:10AD54002380A9E786883046FFF74AFF0546002886
:10AD6400A2D008310A30FFF779FF6872DCE700BF30
:10AD74003832002068320020F7B5174601900E469D
:10AD840091B1019C6CB100252C46294601A8FDF720
:10AD940053F918B13946A8B2B04701340135142D1E
:10ADA400F3D1204603B0F0BD0C46FAE773B5019128
:10ADB400019C06466CB100252C46294601A8FDF7E6
:10ADC4003BF918B106EB440301349D800135142D81
:10ADD400F3D13046346002B070BD00002DE9F04379
:10ADE40003888488112B8DB0064640D01A2B43D09B
:10ADF400102B16D1294DAB680CA8DB4340F8303D2D
:10AE040055F8041FFDF741F9009901A8FFF7CEFF9B
:10AE14000027019B9F4207D3132C18D90420FCF769
:10AE240019F80DB0BDE8F08301AB03EB47034FF015
:10AE34000008B3F8049005EB0800494608F104083B
:10AE4400FDF7F0F8B8F1740FF5D10137E1E72146C9
:10AE54001348FDF7DEF821461248FDF7DAF8F37BD4
:10AE6400012BDED010482146FDF7D3F8D9E70C4872
:10AE74002146FDF7D7F8D4E7057A0C482D09012DB2
:10AE8400214606D9FDF7C5F8022D21460848F0D021
:10AE9400EAE7FDF7C7F821460548EAE770320020E3
:10AEA40078320020743200207C320020803200206E
:10AEB400843200201328014602D80248FDF7BCB8AA
:10AEC400002070477432002010B50446FFF7F2FFEB
:10AED40038B121460348FDF7AFF8002814BF02201B
:10AEE400012010BD7C32002010B50446FFF7E2FFBC
:10AEF40028B121460248BDE81040FDF79DB810BDB9
:10AF04008032002070B50A4D064628460C46FDF7EF
:10AF140093F858B13046FFF7CDFF38B1A01D314644
:10AF240005EB8000BDE87040FDF786B8002070BDD9
:10AF340070320020F8B50D4C054620460E461746E3
:10AF4400FDF77AF880B12846FFF7B4FF60B1B01D71
:10AF540004EB800029461FB1BDE8F840FDF759B85D
:10AF6400BDE8F840FDF75EB8F8BD00BF70320020C0
:10AF7400F8B50A4C05460E46014620461746FDF72D
:10AF84005BF848B1043504EB85043A46A0683146C1
:10AF9400BDE8F840FFF7F0BEF8BD00BF70320020F6
:10AFA400007800F00100704710B50446408800F0B6
:10AFB40067FBA0802046BDE8104001F013B930B50E
:10AFC40087B005460C461422002101A802F0AAF914
:10AFD400072301A88DF80430ADF806500394FFF759
:10AFE400E3FF07B030BD000030B587B0054614223A
:10AFF400002101A802F096F94FF6FF739D42ADF8C7
:10B0040006501AD0284600F0F2F90B2804461DD049
:10B0140005D8A0B121462846FFF7D1FF05E0112845
:10B0240005D043F202039842F4D1002200E0012249
:10B03400074B28461978FFF77DFF07B030BD0E2374
:10B0440001A88DF80430FFF7AFFFEEE70F23F7E711
:10B05400E9320020FFF7C8BF024B034918780022E9
:10B06400FFF786BFEB32002085B00200024B034994
:10B0740018780022FFF77CBFEA3200201DB10200DD
:10B0840070B5234E86B031780446FFF73BFF054682
:10B09400C0BB204600F0FAF90828014622D006D8A1
:10B0A40088B106281ED02046FFF789FF09E043F245
:10B0B4000203984205D043F20143984224D0112858
:10B0C400F1D1012214E02946142201A802F02AF940
:10B0D400102301A88DF80430ADF806400125FFF7D0
:10B0E40063FFEEE7204600F0CBFA00F0E9F9002216
:10B0F400084B20461978FFF71DFF2A463178204671
:10B10400FFF718FF06B070BD2046FFF76DFFD8E7C4
:10B11400EC320020EB32002070B5002186B00646E8
:10B124001C4801F0CDF9054608B3304600F01AF981
:10B13400112801461DD004D860B13046FFF73FFF07
:10B1440005E0862817D043F202039842F5D1002483
:10B15400254601E02C4605460F4B2A461978304611
:10B16400FFF7E8FE1CB921460A4801F0CEF906B003
:10B1740070BD0024F0E71422002101A802F0D2F8E7
:10B18400062301A88DF80430ADF80660FFF70CFF24
:10B19400DDE700BFE8320020EA320020037810B572
:10B1A400044673B94088FFF71FFF608800F05CF91C
:10B1B40038B1044B608819780122BDE81040FFF7CC
:10B1C400B9BE10BDEB3200200378082B37B5044616
:10B1D4002CD1417A51BB057A072D1BD0082D29D0DB
:10B1E400012D23D16A462946808800F03FFEE8B944
:10B1F400019B1B78D3B1A08800F06AFA4FF6FF7365
:10B20400984213D00D4B2A461978FFF793FEFFF7A7
:10B2140023FF0BE0808800F05BFA4FF6FF7398423F
:10B2240004D0074B01221978FFF784FEFFF71EFFB5
:10B2340003B030BD034801F068F9F7E7EB320020B2
:10B24400EA320020E832002010B503888488522BAB
:10B2540086B016D0542B21D0502B15D1037B012B53
:10B2640012D1827A012A0FD1018942F6021399423E
:10B274000AD11B4B20461978FFF75CFEFFF7F6FE58
:10B2840002E02046FFF7B0FE164B1749187800225B
:10B29400FFF76EFEFFF7E0FE06B010BD142200219A
:10B2A40001A802F03FF8112320468DF80430ADF8D0
:10B2B400064000F0E5F9ADF8080000F001F90B4B89
:10B2C400204619780022FFF735FE094B204600225C
:10B2D4001978FFF72FFE01A8FFF766FED4E700BF39
:10B2E400EA320020E932002059B00200EC3200209A
:10B2F400EB320020AFDF7047B1DF7047B2DF704739
:10B30400B3DF704773B50F4B0F4C93E803006D46E2
:10B3140085E8030000222946208800F0A0FE4FF6AD
:10B32400FF762388B34201D0112801D102B070BD49
:10B33400184600F086FE00222946208000F08FFE89
:10B34400EFE700BF98E00200EE320020044B1A88B9
:10B354004FF6FF739A4201D0FFF7D4BF704700BF86
:10B36400EE3200202DE9F743804600F089F94FF6CC
:10B37400FF739842064637D001224FF003096B460B
:10B3840008213046571C00F075FDBFB2054630BB9E
:10B3940001990A46032342F8049B06314046FFF70D
:10B3A400ADFF044648B932460821304600F036FE67
:10B3B4000446204603B0BDE8F0830C280DD00528D0
:10B3C40000D12C460821304600F0C0FD002818BFEB
:10B3D40003243A46002DD2D1EBE70125F2E70728F2
:10B3E40014BF04460C24E4E743F20204E1E72DE928
:10B3F400F341804600F044F94FF6FF73984217D1A9
:10B4040000240325264601272B4622463146404682
:10B41400FFF772FF042820D0082823D00B281DD161
:10B4240015F002030FD18EB9A4B902B0BDE8F081C2
:10B434006A46082100F01AFD0028E1D1019B9E1DF7
:10B444009C881D68DFE701250027DDE703251C46EE
:10B454001E46F9E703253446F6E71120002F08BFFE
:10B464000B20E2E70020F9E71FB50DF10703039372
:10B4740000F006F902AA012100F0F8FC20B9039BB0
:10B48400187805B05DF804FB0020FAE738B50446E7
:10B494000A48FFF735FF70B9084B43F203054FF62E
:10B4A400FF7219882046FFF725FFA84204D11A88A5
:10B4B40001321A80F3E7032038BD00BFF0320020C8
:10B4C40013B5074A044692E803006B4683E8030079
:10B4D40000221946204600F0C2FD02B010BD00BF94
:10B4E400A0E0020046DF7047F8B5094D094E00247C
:10B4F4000C2707FB046329785888FFF703FD08B974
:10B50400E0B2F8BD0134142CF3D1FF20F9E700BFF9
:10B51400F2320020F43200200A4B10B519780446A8
:10B52400FFF7F0FC60B1084B00200C2202FB003155
:10B534004988A14201D1C0B210BD01301428F5D10F
:10B54400FF20F9E7F2320020F432002038B5054636
:10B554000C4609B9FF2038BD4FF6FF739842F9D065
:10B564000E4B01221978FFF7E5FC2846FFF7D4FFBC
:10B57400FF2803D1FFF7B8FFFF28EBD008490C23BD
:10B584004343CA1855804FF6FF75CD522168516068
:10B59400131DA2889A80A2799A71DCE7F232002006
:10B5A400F4320020421E00F10F0312F8010F10B90B
:10B5B4009A42FAD170470120704708B570B171B151
:10B5C40003780A78534013F0FE0F08D106220131A4
:10B5D400013001F048FEB0FA80F0400908BD0020B7
:10B5E400FCE72DE9F04700F101084F1C06460D4623
:10B5F40000F1110901F1110A10223946404601F007
:10B6040032FE0446E0B94046FFF7CCFF18B1384695
:10B61400FFF7C8FF044651464846FFF7CEFF737C48
:10B6240003F0FC03042B04D06B7C03F0FC03042B19
:10B6340002D1201C18BF012000F00100BDE8F087F2
:10B644000024E8E730B585B004460D4600F016FA4C
:10B6540002AA0DF10601072000F018FA10B94FF6FE
:10B66400FF700BE0BDF80630AB42F1D003992046E1
:10B67400FFF7B7FF0028EBD0BDF8060005B030BDDA
:10B6840008B5FFF749FFFF281DBF0C235843034BA0
:10B694004FF6FF7018BF185A08BD00BFF4320020DF
:10B6A40010B50C46FFF738FFFF280CD0074B0C22CF
:10B6B40002FB003050F8043F23608388A380837921
:10B6C400A371002010BD0520FCE700BFF432002068
:10B6D400084A30B500230C2404FB03F18D5A85423B
:10B6E40002D10A44508830BD0133142BF4D14FF6F3
:10B6F400FF70F8E7F4320020038843B9821C00F19C
:10B704000A0312F8010B10B99A42FAD170470120CA
:10B71400704710B50446FFF7EFFF58B122880B8835
:10B724009A4208D108220231A01C01F09CFDB0FA13
:10B7340080F0400910BD0020FCE71FB5044600F06E
:10B744009DF902AA0DF10601072000F09FF910B936
:10B754004FF6FF7007E0039920464631FFF7D9FF03
:10B7640018B1BDF8060004B010BD039920462A3173
:10B77400FFF7CFFF0028E4D0F3E7000010B50C4634
:10B78400FFF7CAFEFF281FBF0C235843014B1C526E
:10B7940010BD00BFF432002070B50446FFF798FFD7
:10B7A4000646204600F0E6FB4FF6FF75AE4204461F
:10B7B40009D040B93046FFF7AFFEFF281FBF0C2366
:10B7C4005843024B1D52204670BD00BFF432002086
:10B7D40030B58DB014460D4600F110030DF1FF3263
:10B7E40013F8011D02F8011F9842F9D10D2200211E
:10B7F40004A801F097FD2B788DF81F306B788DF835
:10B804001E306846AB788DF81D30FFF76BFE9DF84F
:10B814002F3023709DF82E3063709DF82D30A37067
:10B824000DB030BD30B5037803F0FE03042B85B0B2
:10B8340004460D4618D1411C032201A801F049FD1C
:10B844000322211D03A801F044FD02AA03A92846EE
:10B85400FFF7BEFF032202A901A801F004FDB0FA1C
:10B8640080F0400905B030BD0020FBE730B5038807
:10B87400102B93B055D1041D0FCC07AD0FC50FCCC1
:10B884000FC594E8070085E8070012AD15F8283DB8
:10B8940003F0FE03062B4ED000F0F0F89DF82030A4
:10B8A4005B08012B3FD9022B45D102AA0DF10601F9
:10B8B400072000F0EBF800283DD003992846013119
:10B8C400FFF7B0FF0028F0D005E0039928461131B6
:10B8D400FFF773FE38B3BDF80640BDF81C002946D7
:10B8E400FFF734FE4FF6FF739C421AD0BDF81C00DC
:10B8F400FFF712FEFF281EBF0C2358430F4BADF871
:10B904000C4018BF1C52BDF81C30ADF80A3012AC04
:10B91400002304F8403D204600F066FC2046FFF773
:10B924003DFC13B030BD02AA0DF10601072000F062
:10B93400ADF80028C9D14FF6FF74CEE7F4320020E9
:10B94400012804D0043804288CBF0020012070474B
:10B954004FF6FF73438000F00FBA0000F0B51F4D9F
:10B964008BB0002108226846297001F0DBFC4FF6F9
:10B97400FF7000F007FC4FF6FF770446BC4211D07D
:10B98400A4F58046B6B26A4602A93046FCF7B8FA76
:10B994000A2809D03046FCF773FA082806460BD16A
:10B9A40001232B700BB0F0BD204600F08FFB204626
:10B9B40000F0E8FB0446E1E7002EF3D01422002156
:10B9C4000DEB020001F0AEFC072305A88DF814303E
:10B9D400ADF818400796FFF7BBFFE3E7EC33002010
:10B9E40073B504460D46164600210822684601F048
:10B9F40099FCA5F58041A4F580406B46324689B296
:10BA040080B2FCF763FA002814BF0520002002B0BE
:10BA140070BDF0B5FF2887B004460E4615461F4694
:10BA240027D80846FFF78CFF18B303AA2046FFF770
:10BA3400D7FF18B10524204607B0F0BD01A903A81B
:10BA4400FCF786F904460028F4D1019BAE705A88AD
:10BA54002A802FB9029B6B6003A8FCF79DF9EAE7E3
:10BA64003B689200934206D30299686801F031FC66
:10BA7400F2E70724DFE70424DDE7000008220021C1
:10BA8400014801F04FBC00BFE4330020F0B587B09B
:10BA940007460E461546FFF753FF0446F8B1A7F5CF
:10BAA4008040104A03A980B2FCF71EFA18B10024A2
:10BAB400204607B0F0BD01A903A8FCF749F9002806
:10BAC400F5D1019BAF705A889B882A8003F5804387
